:020000020000FC
:0200000010C02E
:1000100000C046B141FD3ED042FD3ED043FD3ED042
:10002000189508E00EBF0FEF0DBF399A3A9A3B9A28
:1000300020E420937C0027E820937A0002E00093DC
:1000400068000EE000936C00789416D025E531E04E
:100050000217130748F02AEA32E00217130740F0AC
:10006000439A41984298F1CF419A43984298EDCFF4
:10007000429A41984398E9CF20917A0020642093D6
:100080007A0020917A0026FDFCCF00917800109133
:1000900079000895599A08955A9A08955B9A089597
:00000001FF
