:020000020000FC
:0200000020C01E
:10000C0000C02F932FB72F936F934F937F938F93A2
:10001C009F9375E067D063B163FD4AD064FD4CD00B
:10002C0065FD4ED09F918F917F914F916F912F9144
:10003C002FBF2F91189528E02EBF2FEF2DBF8AD000
:10004C00F1E0E8EB40E0A2D0F1E0E0EC41E09ED042
:10005C00F1E0E8EC42E09AD0239A249A259A389859
:10006C0020E420937C0027E820937A0021E0209361
:10007C00680028E320936B0078941ED025D025E5EA
:10008C0031E00217130768F02AEA32E0021713076F
:10009C0020F02D9A2B982C98F1CF2C9A2B982D98E8
:1000AC00EDCF2B9A2C982D98E9CF40E84CD00895A1
:1000BC00FCDF40E04CD00895F8DF41E048D00895D3
:1000CC00F4DF42E044D0089520917A00206420931C
:1000DC007A0020917A0026FDFCCF009178001091D7
:1000EC00790008958F939F937F9395E089EF019703
:1000FC00F1F77A95D1F77F919F918F9108958F9316
:10010C009F939FE180E40197F1F79F918F91089560
:10011C0074EE00000000000000007A95D1F70895FD
:10012C00289AF6DF2898F4DF08952BB12F70272B2F
:10013C002BB9F6DF0895742F707FF7DF742F72954B
:10014C00707FF3DF08955898F6DFD9DF0895589A39
:10015C00F2DF0895209A509A549A559A569A579AC3
:10016C0072E3C0DF40E3E1DF75E0BCDFDEDFD0DF50
:10017C00DCDFCEDF40E2D9DFC2DF48E2E4DF4CE077
:10018C00E2DF41E0E0DF46E0DEDF08957F934F934E
:10019C00440F440F440F4064D6DF58E02591422FA2
:1001AC00D6DF5A95D9F74F917F910895000A0A002E
:1001BC00000E1100000A0A000E000000000A0A00DE
:0401CC0000110E0010
:00000001FF
