:020000020000FC
:020000001CC022
:1000040000C02F932FB72F936F934F937F938F93AA
:100014009F9375E067D063B163FD4AD064FD4CD013
:1000240065FD4ED09F918F917F914F916F912F914C
:100034002FBF2F91189528E02EBF2FEF2DBF8BD007
:10004400F1E0E2EB40E0A3D0F1E0EAEB41E09FD045
:10005400F1E0E2EC42E09BD0239A249A259A389866
:1000640020E420937C0027E820937A0021E0209369
:10007400680028E320936B0078941ED025D025E5F2
:1000840031E00217130768F02AEA32E00217130777
:1000940020F02D9A2B982C98F1CF2C9A2B982D98F0
:1000A400EDCF2B9A2C982D98E9CF40E84DD00895A8
:1000B400FCDF40E04DD00895F8DF41E049D00895D9
:1000C400F4DF42E045D0089520917A002064209323
:1000D4007A0020917A0026FDFCCF009178001091DF
:1000E400790008958F939F937F9395E089EF01970B
:1000F400F1F77A95D1F77F919F918F9108958F931E
:100104009F939FE180E40197F1F79F918F91089568
:1001140074EE00000000000000007A95D1F7089505
:10012400599AF6DF5998F4DF0895742F2BB12F7084
:10013400272B2BB9F5DF0895742F707FF6DF742F0A
:100144007295707FF2DF08955898F6DFD8DF08952E
:10015400589AF2DF0895509A519A549A559A569A99
:10016400579A72E3BFDF40E3E0DF75E0BBDFDDDF1A
:10017400CFDFDBDFCDDF40E2D8DFC1DF48E2E4DF01
:100184004CE0E2DF41E0E0DF46E0DEDF08957F930C
:100194004F93440F440F440F4064D6DF58E0259139
:1001A400422FD6DF5A95D9F74F917F910895000ACF
:1001B4000A00000E1100000A0A000E000000000AE6
:0601C4000A0000110E000C
:00000001FF
