:020000020000FC
:020000001FC01F
:100040004FEF4AB944B952985A9A90E010E081E0D3
:1000500008E00EBF0FEF0DBF389820E420937C001E
:1000600027EC20937A0010D103E3C3D00DD102E333
:10007000C0D00AD108E2BDD007D10CE0BAD001E06F
:10008000B8D002D106E0B5D042E04093690041E02B
:100090004DBB789420E02093840020E020938500DD
:1000A00020E02093800025E02093810021E0209330
:1000B0006F0072C000E89DD0E7D005E4B1D0E9D070
:1000C00003E7AED0E6D004E7ABD0E3D001E6A8D09A
:1000D000E0D000E2A5D0DDD003E5A2D0DAD005E67D
:1000E0009FD0D7D003E69CD0D4D00FE699D0D1D002
:1000F00001E296D0CED000EC7CD0C6D0089500E8C6
:1001000078D0C2D005E48CD0C4D003E789D0C1D068
:1001100004E786D0BED001E683D0BBD000E280D019
:10012000B8D005E57DD0B5D00DE67AD0B2D009E6DD
:1001300077D0AFD004E674D0ACD00FE671D0A9D0A0
:1001400001E26ED0A6D000EC54D09ED0089500E815
:1001500050D09AD005E464D09CD003E761D099D008
:1001600004E75ED096D001E65BD093D000E258D091
:1001700090D00DE655D08DD005E652D08AD009E654
:100180004FD087D00FE64CD084D001E249D081D047
:1001900000EC2FD079D0089540917A0040644093CC
:1001A0007A0050917A0054FFFCCF50917A00506150
:1001B00050937A000091780010917900E0E0202FB0
:1001C000312F94E873E02917370738F490E971E08C
:1001D0002917370700F093DF03C0E1E06BDF00C0B1
:1001E00000EC07D051D030E3082F030F19D04CD0CA
:1001F000D3CFB02FB07F4BB14F70B42BBBB9299880
:10020000289A3AD028983BD0B02FB295B07F4BB106
:100210004F70B42BBBB9289A2FD0289830D00895AE
:10022000B02FB07F4BB14F70B42BBBB9299A289A2D
:1002300023D0289824D0B02FB295B07F4BB14F7007
:10024000B42BBBB9289A18D0289819D008950F93C9
:100250000FB70F93E13028F02D9A1BD02D980C94F6
:10026000380190E09093840070E070938500A0E0E6
:100270000F910FBF0F9118950000000008954AE5F7
:10028000FBDF4A95E9F7089558E2F9DF5A95E9F757
:1002900008954FEF5FEF64E16A95F1F75A95D9F74A
:0602A0004A95C1F7089524
:00000001FF
