:020000020000FC
:1000000000C028E02EBF2FEF2DBF84D0F1E0ECE63A
:1000100040E09CD0F1E0E4E741E098D0F1E0ECE78B
:1000200042E094D0389820E420937C0027E8209385
:100030007A006FEF28D025E531E00217130768F04A
:100040002AEA32E00217130720F022E0261316D026
:10005000F1CF21E026130DD0EDCF20E0261304D000
:10006000E9CF40E850D00895622FFBDF40E04FD049
:100070000895622FF6DF41E04AD00895622FF1DF44
:1000800042E045D0089520917A00206420937A00C0
:1000900020917A0026FDFCCF009178001091790024
:1000A00008958F939F937F9395E089EF0197F1F7E0
:1000B0007A95D1F77F919F918F9108958F939F9318
:1000C0009FE180E40197F1F79F918F91089574EE7D
:1000D00000000000000000007A95D1F70895599AB9
:1000E000F6DF5998F4DF0895742F2BB12F70272B6A
:1000F0002BB9F5DF0895742F707FF6DF742F72959A
:10010000707FF2DF08955898F6DFD8DF0895589A87
:10011000F2DF0895509A519A549A559A569A579ADE
:1001200072E3BFDF40E3E0DF75E0BBDFDDDFCFDFA1
:10013000DBDFCDDF40E2D8DFC1DF48E2E4DF4CE0C7
:10014000E2DF41E0E0DF46E0DEDF08957F934F939A
:10015000440F440F440F4064D6DF58E02591422FEE
:10016000D6DF5A95D9F74F917F910895000A0A007A
:10017000000E1100000A0A000E000000000A0A002A
:0401800000110E005C
:00000001FF
