:020000020000FC
:1000000000C028E02EBF2FEF2DBF89D0F1E0E8E738
:1000100040E0A2D0F1E0E0E841E09ED0F1E0E8E885
:1000200042E09AD0389820E420937C0027E820937F
:100030007A006FEF00C028D025E531E002171307E2
:1000400068F02AEA32E00217130720F022E02613B4
:1000500016D0F1CF21E026130DD0EDCF20E02613EE
:1000600004D0E9CF40E854D00895622FFBDF40E090
:1000700053D00895622FF6DF41E04ED00895622FED
:10008000F1DF42E049D0089520917A002064209366
:100090007A0020917A0024FFFCCF20917A00206121
:1000A00020937A00009178001091790008958F9341
:1000B0009F937F9395E089EF0197F1F77A95D1F7B8
:1000C0007F919F918F9108958F939F939FE180E4FB
:1000D0000197F1F79F918F91089574EE0000000051
:1000E000000000007A95D1F70895289AF6DF289845
:1000F000F4DF08952BB12F70272B2BB9F6DF08956D
:10010000742F707FF7DF742F7295707FF3DF08957F
:100110002998F6DFD9DF0895299AF2DF0895219A08
:100120002998209A549A559A569A579A72E3BFDFA3
:1001300040E3E0DF75E0BBDFDDDFCFDFDBDFCDDF1E
:1001400040E2D8DFC1DF48E2E3DF4CE0E1DF41E03D
:10015000DFDF46E0DDDF08957F934F93440F440FC8
:10016000440F4064D5DF58E02591422FD5DF5A95E2
:10017000D9F74F917F910895000A0A00000E1100EF
:10018000000A0A000E000000000A0A0000110E001A
:00000001FF
