:020000020000FC
:020000001BC023
:040004000C94FE005A
:100034000C9409014FEF4AB944B952985A9A90E086
:1000440010E081E0A0E008E00EBF0FEF0DBF38988C
:1000540020E420937C0027EC20937A0006D103E36C
:100064009DD003D102E39AD000D108E297D0FDD00D
:100074000CE094D001E092D0F8D006E08FD042E0BA
:100084004093690041E04DBB789420E020938400C4
:1000940020E02093850020E02093800025E0209339
:1000A400810021E020936F004DC000E877D0DDD0BF
:1000B40005E48BD0DFD003E788D0DCD004E785D01B
:1000C400D9D001E682D0D6D000E27FD0D3D003E5E8
:1000D4007CD0D0D005E679D0CDD003E676D0CAD096
:1000E4000FE673D0C7D001E270D0C4D000EC56D074
:1000F400BCD0089500E852D0B8D005E466D0BAD098
:1001040003E763D0B7D004E760D0B4D001E65DD094
:10011400B1D000E25AD0AED005E557D0ABD00DE651
:1001240054D0A8D009E651D0A5D004E64ED0A2D030
:100134000FE64BD09FD001E248D09CD000EC2ED0EB
:1001440094D0089540917A00406440937A0050918D
:100154007A0054FFFCCF50917A00506150937A009A
:100164000091780010917900E0E0202F312F94E87D
:1001740073E02917370738F490E971E02917370736
:1001840000F0B8DF02C0E1E090DF00EC07D06DD0F2
:1001940030E3082F030F19D068D0D4CFB02FB07F2D
:1001A4004BB14F70B42BBBB92998289A56D02898D4
:1001B40057D0B02FB295B07F4BB14F70B42BBBB9B1
:1001C400289A4BD028984CD00895B02FB07F4BB1CB
:1001D4004F70B42BBBB9299A289A3FD0289840D0A5
:1001E400B02FB295B07F4BB14F70B42BBBB9289AE6
:1001F40034D0289835D008950F930FB70F93839573
:10020400843009F481E00F910FBF0F9118950F937B
:100214001F930FB70F93E13080F0A395813011F451
:1002240018D012C0823021F4AF3071F412D00CC057
:10023400833051F4AB3441F40CD020E0209384009B
:1002440030E030938500A0E00F910FBF1F910F9114
:1002540018952D9A0FD02D98089500000000089548
:100264004AE5FBDF4A95E9F7089558E2F9DF5A9524
:10027400E9F708954FEF5FEF64E16A95F1F75A9556
:08028400D9F74A95C1F708956E
:00000001FF
