:020000020000FC
:020000001BC023
:040004000C94360121
:100034000C9441014FEF4AB944B952985A9A90E04E
:1000440010E081E0C0E008E00EBF0FEF0DBF38986C
:1000540020E420937C0027EC20937A0040D103E332
:10006400D5D03DD102E3D2D03AD108E2CFD037D1B6
:100074000CE0CCD001E0CAD032D106E0C7D042E0D7
:100084004093690041E04DBB789420E020938400C4
:1000940020E02093850020E02093800025E0209339
:1000A400810021E020936F0084C000E8AFD017D115
:1000B40005E4C3D019D103E7C0D016D104E7BDD0FD
:1000C40013D101E6BAD010D100E2B7D00DD103E5C7
:1000D400B4D00AD105E6B1D007D103E6AED004D13D
:1000E4000FE6ABD001D101E2A8D0FED000E2A5D04A
:1000F400FBD000EC8BD0F3D0089500E887D0EFD08C
:1001040005E49BD0F1D003E798D0EED004E795D076
:10011400EBD001E692D0E8D000E28FD0E5D00DE438
:100124008CD0E2D00FE689D0DFD00CE686D0DCD0CC
:1001340008E683D0D9D001E680D0D6D004E67DD0BD
:10014400D3D00FE67AD0D0D001E277D0CDD000E280
:1001540074D0CAD000EC5AD0C2D0089500E856D06A
:10016400BED005E46AD0C0D003E767D0BDD004E7B1
:1001740064D0BAD001E661D0B7D000E25ED0B4D08A
:1001840005E55BD0B1D00DE658D0AED009E655D028
:10019400ABD004E652D0A8D00FE64FD0A5D001E2F0
:1001A4004CD0A2D000E249D09FD000EC2FD097D001
:1001B400089540917A00406440937A0050917A0007
:1001C40054FFFCCF50917A00506150937A00F09024
:1001D400780010917900E0E02F2D312F94E873E03E
:1001E4002917370748F490E971E02917370710F009
:1001F400B5DF04C082DF02C0E1E057DF00EC06D0C7
:100204006ED000E3080F19D06AD0D3CFB02FB07FDF
:100214004BB14F70B42BBBB92998289A58D0289861
:1002240059D0B02FB295B07F4BB14F70B42BBBB93E
:10023400289A4DD028984ED00895B02FB07F4BB156
:100244004F70B42BBBB9299A289A41D0289842D030
:10025400B02FB295B07F4BB14F70B42BBBB9289A75
:1002640036D0289837D008950F930FB70F938395FE
:10027400843009F481E00F910FBF0F9118950F930B
:100284001F930FB70F93E13080F0C395813011F4C1
:100294001AD014C0823021F4CA3081F414D00EC0B4
:1002A400833061F4CB3451F40ED04F9340E040934B
:1002B400840040E040938500C0E04F910F910FBF50
:1002C4001F910F9118952D9A0FD02D980895000025
:1002D400000008954AE5FBDF4A95E9F7089558E2DE
:1002E400F9DF5A95E9F708954FEF5FEF64E16A95F6
:0C02F400F1F75A95D9F74A95C1F7089523
:00000001FF
