:020000020000FC
:020000001CC022
:1000140000C02F934F937F938F939F9363B163FD9E
:100024004AD064FD4CD065FD4ED09F918F917F9155
:100034004F912F91189528E02EBF2FEF2DBF7ED022
:10004400F1E0E4E940E094D0F1E0ECE941E090D063
:10005400F1E0E4EA42E08CD0239A249A259A2B9882
:100064002C982D98389A20E420937C0027EE209336
:100074007A0024E02093680028E320936D007894AC
:100084001ED025D025E531E00217130748F02AEAEF
:1000940032E00217130740F02D9A2B982C98F1CFD9
:1000A4002B9A2D982C98EDCF2C9A2B982D98E9CF3C
:1000B40041E03DD00895FCDF40E03DD00895F8DFF5
:1000C40041E039D00895F4DF42E035D0089520911D
:1000D4007A00206420937A0020917A0026FDFCCFD8
:1000E4000091780010917900089578E200007A95E3
:1000F400E9F708958F939F9380E293E00197F1F7D6
:100104009F918F910895599AF0DF5998EEDF0895E1
:10011400742F2BB12F70272B2BB9F5DF0895742F73
:10012400707FF6DF742F7295707FF2DF0895589810
:10013400F6DFE0DF0895589AF2DF0895509A519A55
:10014400549A559A569A579AD5DF40E3E1DFD2DFA5
:10015400DFDFD0DFDDDFCEDF40E2DADFCBDF48E216
:10016400E6DF4CE0E4DF41E0E2DF46E0E0DF089573
:100174007F938F93440F440F440F4064D8DF58E0BB
:100184002591422FD8DF5A95D9F78F917F91089501
:10019400000A0A00000E1100000A0A000E00000006
:0801A400000A0A0000110E0020
:00000001FF
