:020000020000FC
:020000001BC023
:040004000C94420115
:100034000C944D014FEF4AB944B952985A9A90E042
:1000440010E081E0C0E008E00EBF0FEF0DBF38986C
:1000540020E420937C0027EC20937A004CD103E326
:10006400E1D049D102E3DED046D108E2DBD043D16E
:100074000CE0D8D001E0D6D03ED106E0D3D042E0A7
:100084004093690041E04DBB789420E020938400C4
:1000940020E02093850020E02093800025E0209339
:1000A400810021E020936F0090C000E8BBD023D1F1
:1000B40005E4CFD025D103E7CCD022D104E7C9D0C1
:1000C4001FD101E6C6D01CD100E2C3D019D103E58B
:1000D400C0D016D105E6BDD013D103E6BAD010D1F5
:1000E4000FE6B7D00DD101E2B4D00AD100E2B1D00D
:1000F40007D100E2AED004D100E2ABD001D100ECD4
:1001040091D0F9D0089500E88DD0F5D005E4A1D0C0
:10011400F7D003E79ED0F4D004E79BD0F1D001E6FA
:1001240098D0EED000E295D0EBD00DE492D0E8D098
:100134000FE68FD0E5D00CE68CD0E2D008E689D06B
:10014400DFD001E686D0DCD004E683D0D9D00FE638
:1001540080D0D6D001E27DD0D3D000E27AD0D0D006
:1001640000EC60D0C8D0089500E85CD0C4D005E4A9
:1001740070D0C6D003E76DD0C3D004E76AD0C0D036
:1001840001E667D0BDD000E264D0BAD005E561D005
:10019400B7D00DE65ED0B4D009E65BD0B1D004E6AA
:1001A40058D0AED00FE655D0ABD001E252D0A8D093
:1001B40000E24FD0A5D000E24CD0A2D000E249D05A
:1001C4009FD000EC2FD097D0089540917A004064DE
:1001D40040937A0050917A0054FFFCCF50917A00FA
:1001E400506150937A00F090780010917900E0E02B
:1001F4002F2D312F94E873E02917370748F490E93D
:1002040071E02917370710F0AFDF04C07CDF02C0AC
:10021400E1E04BDF00EC06D06ED000E3080F19D00C
:100224006AD0D3CFB02FB07F4BB14F70B42BBBB9D2
:100234002998289A58D0289859D0B02FB295B07FD1
:100244004BB14F70B42BBBB9289A4DD028984ED0DF
:100254000895B02FB07F4BB14F70B42BBBB9299A1E
:10026400289A41D0289842D0B02FB295B07F4BB194
:100274004F70B42BBBB9289A36D0289837D008953C
:100284000F930FB70F938395843009F481E00F9196
:100294000FBF0F9118950F931F930FB70F93E13072
:1002A40080F0C395813011F41AD014C0823021F447
:1002B400CA3081F414D00EC0833061F4CB3451F4CD
:1002C4000ED04F9340E04093840040E0409385007B
:1002D400C0E04F910F910FBF1F910F9118952D9A68
:1002E4000FD02D9808950000000008954AE5FBDF23
:1002F4004A95E9F7089558E2F9DF5A95E9F7089520
:100304004FEF5FEF64E16A95F1F75A95D9F74A9593
:04031400C1F7089590
:00000001FF
