:020000020000FC
:0200000022C01C
:1000140000C02F932FB72F934F937F938F939F936A
:1000240075E066D063B163FF49D064FF4BD065FFD0
:100034004DD09F918F917F914F912F912FBF2F91F1
:10004400189528E02EBF2FEF2DBF88D0F1E0E8EB04
:1000540040E0A0D0F1E0E0EC41E09CD0F1E0E8EC3D
:1000640042E098D0239A249A259A389820E4209341
:100074007C0027E820937A0021E02093680028E39D
:1000840020936B0078941ED025D025E531E002172B
:10009400130768F02AEA32E00217130720F02D9ABA
:1000A4002B982C98F1CF2C9A2B982D98EDCF2B9A36
:1000B4002C982D98E9CF40E84AD00895FCDF40E021
:1000C4004AD00895F8DF41E046D00895F4DF42E0D5
:1000D40042D0089520917A00206420937A002091E0
:1000E4007A0026FDFCCF00917800109179000895E4
:1000F4008F939F937F9395E089EF0197F1F77A951A
:10010400D1F77F919F918F9108958F939F939FE152
:1001140080E40197F1F79F918F91089578E20000B0
:100124007A95E9F70895599AF9DF5998F7DF089510
:10013400742F2BB12F70272B2BB9F5DF0895742F53
:10014400707FF6DF742F7295707FF2DF08955898F0
:10015400F6DFDBDF0895589AF2DF0895509A519A3A
:10016400549A559A569A579A72E3C2DF40E3E0DFF5
:1001740075E0BEDFDDDFD2DFDBDFD0DF40E2D8DFDA
:10018400C4DF48E2E4DF4CE0E2DF41E0E0DF46E0E8
:10019400DEDF08957F934F93440F440F440F406470
:1001A400D6DF58E02591422FD6DF5A95D9F74F91E3
:1001B4007F910895000A0A00000E1100000A0A0047
:0C01C4000E000000000A0A0000110E00EE
:00000001FF
